S01D000074726166666963206C69676874206677642070726F2E737265631E
S11300000C942A000C9439010C943C000C943C0090
S11300100C943C000C94EA030C943C000C943C00BB
S11300200C943C000C943C000C943C000C94940301
S11300300C943C000C943C000C943C000C943C004C
S11300400C943C000C943C000C943C000C943C003C
S11300500C943C0011241FBECFE5D8E0DEBFCDBF19
S113006020E0A0E6B0E001C01D92A836B207E1F797
S11300700E943E000C94FB030C9400000E940001BB
S11300800E94450080E090E0089580916100811114
S11300901DC060E081E40E949C0164E180E094E082
S11300A00E940F0380916300882361F060E081E483
S11300B00E94A00160E082E40E94A00182E080939B
S11300C06100E3CF81E080936100DFCF813011F5DF
S11300D061E081E40E949C0164E180E094E00E947C
S11300E00F0380916300882349F060E082E40E945A
S11300F0A00160E081E40E94A00108C061E081E405
S11301000E94A00160E081E40E94A00182E080934B
S11301106100BBCF823019F562E081E40E949C014A
S113012080916300882349F062E082E40E949C018C
S113013081E0809360001092630064E180E094E0C9
S11301400E940F0380916300882329F081E080934B
S113015060001092630083E08093610096CF61E0B9
S113016081E40E949C0180916000882321F061E079
S113017082E40E949C0164E180E094E00E940F0309
S113018061E081E40E94A00161E082E40E94A00198
S113019080916300882361F060E081E40E94A00103
S11301A060E082E40E94A00182E0809361006DCF50
S11301B062E081E40E94A00162E082E40E94A00166
S11301C0809162008823C9F060E081E40E949C0170
S11301D060E082E40E949C016EE080E094E00E9472
S11301E0590360E081E40E94A00160E082E40E947F
S11301F0A00110926200109260001092610045CF3D
S113020060E081E40E94980161E081E40E94980129
S113021062E081E40E94980160E082E40E94980117
S113022061E082E40E94980162E082E40E94980105
S113023062E084E40E9435010E94D2020E94DD0241
S11302400E94E1020E94D60284EA91E00E94E50243
S11302508EE60E94EA028EE60E943A038BE00E9438
S113026003038FE20E945303089540E00E94A70114
S113027008951F920F920FB60F9211242F933F935C
S11302804F935F936F937F938F939F93AF93BF939A
S1130290EF93FF9380916100823081F4909162002A
S11302A091110CC00E94050362E082E40E949C014B
S11302B081E0809363008093620029C0811110C0A3
S11302C09091620091110CC00E94050360E082E4E9
S11302D00E949C0181E0809363008093620017C0B8
S11302E0813011F0833099F48091620081110FC044
S11302F00E94050360E082E40E949C0161E081E4C5
S11303000E94A00181E08093630080936200FF91CA
S1130310EF91BF91AF919F918F917F916F915F9179
S11303204F913F912F910F900FBE0F901F901895F2
S113033041E00E94A701089541E00E94210208952E
S113034040E00E94210208950E949B020895823495
S113035031F118F4813439F008958334E1F18434AF
S113036009F454C0089541110CC02AB381E090E00F
S113037002C0880F991F6A95E2F7809582238ABB91
S11303800895413009F05CC02AB381E090E002C0D6
S1130390880F991F6A95E2F7822B8ABB0895411151
S11303A00CC027B381E090E002C0880F991F6A95C2
S11303B0E2F78095822387BB0895413009F040C05D
S11303C027B381E090E002C0880F991F6A95E2F795
S11303D0822B87BB089541110CC024B381E090E0C7
S11303E002C0880F991F6A95E2F78095822384BB27
S11303F00895413029F524B381E090E002C0880FCC
S1130400991F6A95E2F7822B84BB089541110CC0B1
S113041021B381E090E002C0880F991F6A95E2F74A
S11304208095822381BB0895413051F421B381E04A
S113043090E002C0880F991F6A95E2F7822B81BB76
S11304400895823431F118F4813439F008958334F5
S1130450E1F1843409F454C0089541110CC02BB364
S113046081E090E002C0880F991F6A95E2F78095B9
S113047082238BBB0895413009F05CC02BB381E02B
S113048090E002C0880F991F6A95E2F7822B8BBB1C
S1130490089541110CC028B381E090E002C0880F98
S11304A0991F6A95E2F78095822388BB08954130AD
S11304B009F040C028B381E090E002C0880F991F82
S11304C06A95E2F7822B88BB089541110CC025B3CD
S11304D081E090E002C0880F991F6A95E2F7809549
S11304E0822385BB0895413029F525B381E090E04E
S11304F002C0880F991F6A95E2F7822B85BB089585
S113050041110CC022B381E090E002C0880F991F12
S11305106A95E2F78095822382BB0895413051F4B5
S113052022B381E090E002C0880F991F6A95E2F738
S1130530822B82BB08958234A1F018F4813431F007
S113054008958334C9F0843411F108952BB381E004
S113055090E002C0880F991F6A95E2F782278BBB4F
S1130560089528B381E090E002C0880F991F6A952E
S1130570E2F7822788BB089525B381E090E002C0AA
S1130580880F991F6A95E2F7822785BB089522B3E5
S113059081E090E002C0880F991F6A95E2F78227F4
S11305A082BB08958FB780688FBF089585B7836035
S11305B085BF8BB780648BBF089589B7816089BF7D
S11305C0089589B7806489BF0895909365008093E6
S11305D064000895863699F018F4833661F008951E
S11305E08E3619F0803719F0089513BE089583B735
S11305F0806483BF089583B7886083BF089583B7F9
S1130600886483BF089582BF0895109267008BE0C9
S11306100E94030308951092670013BE0895803466
S11306209105B1F02CF4009759F0089769F01BC0BC
S1130630811521E0920781F08115944089F013C05F
S113064083B7816083BF0FC083B7826083BF0BC051
S113065083B7836083BF07C083B7846083BF03C04D
S113066083B7856083BF809167008617E0F30E949B
S11306700B030895863699F018F4833661F00895D3
S11306808E3619F0803719F0089515BC089585B594
S1130690806485BD089585B5886085BD089585B558
S11306A0886485BD089584BD08951092660015BCC4
S11306B008958034910511F14CF488309105B1F01E
S11306C080329105B9F0892B41F50CC0811521E0E8
S11306D09207E1F0811524E09207E1F0803891055A
S11306E0E1F410C085B5816085BD17C085B5826011
S11306F085BD13C085B5836085BD0FC085B5846095
S113070085BD0BC085B5856085BD07C085B5866090
S113071085BD03C085B5876085BD80916600861759
S1130720E0F30E94550308951F920F920FB60F92A3
S113073011242F933F934F935F936F937F938F93E2
S11307409F93AF93BF93EF93FF938BE00E940303B8
S1130750809167008F5F80936700882351F18091B7
S11307606100823031F1813031F0833021F08091A9
S113077063008823F1F080916300811104C08091AB
S11307806000882379F0E0916400F091650061E0F5
S113079081E40995E0916400F091650061E082E4F0
S11307A0099507C0E0916400F091650061E081E47F
S11307B00995FF91EF91BF91AF919F918F917F9197
S11307C06F915F914F913F912F910F900FBE0F90BA
S11307D01F9018951F920F920FB60F9211248F93AA
S11307E0809166008F5F809366008F910F900FBE9B
S10D07F00F901F901895F894FFCFA6
S9030000FC
